:020000040800F2
:1000000030080020593A0008791A00087B1A0008C5
:100010007F1A0008831A0008871A000800000000F1
:100020000000000000000000000000008B1A000823
:100030008D1A0008000000008F1A0008911A0008AD
:10004000733A0008733A0008733A0008733A0008DC
:10005000733A0008733A0008733A0008733A0008CC
:10006000733A0008733A0008733A0008733A0008BC
:10007000733A0008733A0008733A0008733A0008AC
:10008000733A0008733A0008733A0008733A00089C
:10009000733A0008733A0008733A0008733A00088C
:1000A000733A0008733A0008733A0008733A00087C
:1000B000E7170008733A0008733A0008733A00081B
:1000C000733A0008733A0008733A0008733A00085C
:1000D000733A00083F170008B3170008733A000886
:1000E000733A0008733A0008733A000800F002F807
:1000F00000F03AF80AA090E8000C82448344AAF188
:100100000107DA4501D100F02FF8AFF2090EBAE885
:100110000F0013F0010F18BFFB1A43F0010318473B
:10012000443D0000643D0000103A24BF78C878C107
:10013000FAD8520724BF30C830C144BF04680C60ED
:10014000704700000023002400250026103A28BF35
:1001500078C1FBD8520728BF30C148BF0B60704739
:100160001FB51FBD10B510BD03F0ACFD1146FFF764
:10017000F7FF01F0CEFA03F0CAFD03B4FFF7F2FF78
:1001800003BC03F0CFFD0000002004E00021E24AA0
:100190001154411C88B2C828F8DB0021DF4A1170D5
:1001A00070472DE9F04104460F4615460126FFF73A
:1001B000EBFF0BE000BF4021D94803F005FB00280E
:1001C000F9D02178D64803F091FA641C20780028F1
:1001D000F0D1D4A001F04DFD15B93046BDE8F08155
:1001E0000020D1490880D14805700120D04908700D
:1001F00007E03946C84803F055FC08B9012600E07D
:100200000026CB4800783042F3D13046E6E730B5DF
:10021000BFB000242022C7A137A803F0DDFC0025D1
:10022000CCA001F09AFCDBA001F097FCDFA001F06C
:1002300094FCE7A001F091FC0222ECA1ECA0FFF7F6
:10024000B0FF28B1EDA001F088FC01203FB030BD27
:10025000F3A101A803F038FC0C2537A803F058FCE3
:1002600084B2691E01AA881837A903F02DFC222147
:100270002819401E01AA11540020291950540322A4
:10028000DAA101A8FFF78DFF2AE0E848008810F402
:10029000004F25D0E5480088C0F30D04642C00DD34
:1002A00064240020E1490880042C06D1E0A1E24842
:1002B00003F0F8FB08B10020C8E7D9A001F0D9FC91
:1002C0002220DD4908550021DB4A601C115402221E
:1002D000C6A1D948FFF765FF10B1D8A001F03DFCD9
:1002E000D3E770B5DCA001F038FCAAA001F035FC22
:1002F0000222BEA1E8A0FFF754FF0222BBA1EEA09C
:10030000FFF74FFF0522B9A1F2A0FFF74AFF20B186
:10031000F4A001F022FC012070BD0522B3A1FAA0D7
:10032000FFF73FFF20B1FCA001F017FC0220F3E72C
:100330000120FE49087072E0BC48008810F4004FAC
:1003400011D00020B9490880B9A1BB4803F0AAFB2D
:1003500030B10222A5A1F6A0FFF723FF0020DBE7C2
:10036000F7A001F0FAFB0A22A0A1F8A0FFF719FFFD
:10037000002848D10120ED490870F9A1664803F032
:1003800091FB044667A1204603F08CFB0546002C38
:1003900039D0F3A1204603F07FFB0646F1A001F01F
:1003A000DCFB304601F0D9FB092001F0C8FBECA1D1
:1003B000002003F071FB0646ECA001F0CEFB3046B6
:1003C00001F0CBFB092001F0BAFBE5A1002003F00E
:1003D00063FB0646E7A001F0C0FB304601F0BDFB21
:1003E000092001F0ACFBDEA1002003F055FB06461E
:1003F00000202870E1A001F0B0FB304601F0ADFB19
:1004000048A001F0AAFBC94800780B2807DD0020AE
:10041000C6490870B3A001F0A0FB01207CE78BE780
:1004200030B502460023002000BF09E000EB800445
:10043000600012F8014B303C0444E0B25C1CE3B2B3
:100440008B42F3DB30BD2DE9F043B3B00024A0466E
:100450000025CCA001F081FBD64801F07EFBD6A0A0
:1004600001F07BFB4BA001F078FBDFE26F480088D6
:1004700010F4004F24D06D480088C0F30D04C62C42
:1004800000DDC62400206949088069A16A4803F09C
:1004900009FB10B14FF00408DDE1D3A1664803F079
:1004A00001FB10B14FF00108D5E1D1A1624803F082
:1004B000F9FA10B14FF00208CDE14FF00008CAE19F
:1004C000CDA1154803F0EEFA68B1012D0BD1CDA0F6
:1004D00001F043FB01209549087002254FF0030805
:1004E000FFF752FEACE1012D14D1C9A10A4803F077
:1004F000D9FA78B18D4800780A280BDDC6A001F042
:100500002CFB00BF4021C74803F05EF90028F9D05A
:10051000864889E194E100000801002000000020E5
:10052000004400400D0A00000200002001000020ED
:1005300007000020C4E3BAC3B8D0D0BBC4E3B9BA43
:10054000C2F2C4E0C8CBB5E7D7D347534DBFAAB773
:10055000A2B0E50040404040404040404040404064
:10056000404040404040404040545453CEC4B1BE4F
:10057000D3EFD2F4B2E2CAD44040404040404040C1
:100580004040404040404040404040404040400D9E
:100590000A000000CDCBB3F6B2E2CAD4A3BACDCBE9
:1005A000B3F62BBBD8B3B50D0A000000D3EFD2F4DD
:1005B000B2A5B7C5A3BAD6B1BDD3CAE4C8EBB2A53C
:1005C000B7C5B5C4C4DAC8DD2BBBD8B3B50D0A00B6
:1005D000D7A2D2E2A3BAD7EEB4F3D6A7B3D63130BE
:1005E00030B8F6D7D6BDDA0D0A0000004F4B000038
:1005F00041542B435454533D3F000000B4EDCEF31F
:10060000A3BAC7EBB2E9D1AFC4A3BFE9CAC7B7F178
:10061000BEDFB1B8B8C3B9A6C4DC0D0A0000000043
:1006200041542B435454533D322C22000C000020E3
:10063000CDCBB3F60000000040000020B5C8B4FDEB
:10064000C9CFD2BBD6A1CAFDBEDDB2A5B7C5CDEA22
:10065000B1CF0D0A00000000404040404040404003
:1006600040404040404040404040404040BBF9D5C1
:10067000BEB6A8CEBBB2E2CAD440404040404040E3
:10068000404040404040404040404040404040406A
:1006900040400D0A0000000041542B53415042528B
:1006A0003D332C312C22436F6E74797065222C22DD
:1006B000475052532200000041542B5341504252A4
:1006C0003D332C312C2241504E222C22434D4E459D
:1006D0005422000041542B53415042523D312C31A1
:1006E00000000000B4F2BFAACAA7B0DCA3ACC7EBFD
:1006F000C8B7C8CFC4A3BFE9CAC7B7F1D3D0B8C37E
:10070000B9A6C4DC0D0A000041542B53415042529B
:100710003D322C3100000000BBF1C8A1B1BEB5D8FC
:100720004950B4EDCEF30D0A000000000600002091
:1007300041542B53415042523D302C3100000000B7
:10074000CAE4C8EBB4EDCEF30D0A000041542B43CC
:10075000495047534D4C4F433D312C310000000070
:100760002C000000BEADB6C83A000000CEB3B6C83B
:100770003A000000C8D5C6DA3A000000CAB1BCE4AD
:100780003A0000004040404040404040404040402F
:10079000404047505253B2E2CAD4404040404040EB
:1007A0004040404040404040404040404040400D7C
:1007B0000A000000343D0008B7A2CBCDC4DAC8DD82
:1007C000A3BAB7A2CBCD2BC4DAC8DD2BBBD8B3B547
:1007D0000D0AC8E7A3BAB7A2CBCDC4E0C8CBB5E732
:1007E000D7D30D0A00000000C9E8D6C300000000FE
:1007F000B7A2CBCD00000000434F4E4E45435420DE
:100800004F4B0000C1ACBDD3B3C9B9A60D0A00005F
:10081000434C4F5345440000C1ACBDD3CAA7B0DC24
:100820000D0A0000003801400178FE4802F05EFF2A
:100830000020FD49087000254FF00108FFF7A4FCD7
:10084000022D08D1F84800780A2804DD0120F64975
:1008500008704FF00308B8F1050F28D2DFE808F060
:1008600003288DBED700F1A1F24803F01BF9F0B1C7
:10087000F1A001F072F9AFF21811EE4803F012F98D
:100880000646AFF21C11EB4803F00CF90746B81B03
:10089000401EC1B2701CFFF7C3FD81464946781C5B
:1008A00001F06EF9E6A001F058F9FFF76DFCBCE02D
:1008B000E4A1E54803F0F6F828B9E4A1E24803F022
:1008C000F1F8002853D0E2A101A803F0FDF8221F9F
:1008D000DD49091D04A803F03AF9002101AA04F139
:1008E0000C0011540222DEA1E0A0FFF75AFC022204
:1008F000E2A1E4A0FFF755FC0222AFF21031E4A020
:10090000FFF74FFC0222AFF21C31E5A0FFF749FCD4
:100910000222AFF22831E9A0FFF743FC0222AFF236
:100920003431E9A0FFF73DFC0222AFF24031ECA0E8
:10093000FFF737FC0222AFF24C31EDA0FFF731FC9C
:100940000222AFF2583101A8FFF72BFC38B9EBA017
:1009500001F003F90120B449087001250AE0EBA079
:1009600001F0FBF80020B0490870002502E0E7A084
:1009700001F0F3F84FF0000857E0022D28D1E8A06D
:1009800001F0EBF80222ECA1ECA0FFF70AFCC0B9E1
:100990001A20AD4908550021AB4A601C11540822A9
:1009A000E9A1A948001DFFF7FCFB30B9E8A001F060
:1009B000D4F801209C4908700DE0E8A001F0CDF8C2
:1009C00009E01B2001F047F9E4A001F0C6F802E0BD
:1009D000E5A001F0C2F84FF0000826E00222D6A1FF
:1009E000D6A0FFF7DEFB48B9002001F034F91A2049
:1009F00001F031F9DFA001F0B0F805E01B2001F0B3
:100A00002AF9DFA001F0A9F84FF000080DE0052257
:100A100093A196A0FFF7C5FB052298A199A0FFF727
:100A2000C0FB012033B0BDE8F08300BF1EE52DE917
:100A3000F0418EB00026B0460024D44801F08DF875
:100A4000D248503001F089F8D048943001F085F850
:100A5000CFA001F082F8D9A001F07FF80222AFF216
:100A60007441DEA0FFF79DFB0222AFF28041DEA0C1
:100A7000FFF797FB0322AFF28C41E0A0FFF791FB59
:100A800041E2E448008810F4004F2ED0E14800888D
:100A9000C0F30D06C62E00DDC6260020DD49088005
:100AA000AFF27441684802F0FDFF18B100200EB0AB
:100AB000BDE8F081AFF2D021634802F0F3FF10B13E
:100AC0004FF0030811E0D4A15F4802F0EBFF10B132
:100AD0004FF0020809E0D2A15B4802F0E3FF10B139
:100AE0004FF0010801E04FF00008B8F1000F09D005
:100AF000B8F1010F1DD0B8F1020F65D0B8F1030FA6
:100B000016D1DCE1C7A14B4802F0CCFF80B1C7A0F1
:100B100001F023F8C8A001F020F8AFF2BC3145483D
:100B200002F0C0FF0546681C01F017F8FFF72CFB28
:100B3000E8E1C4A001F011F8002043498855C4A1A0
:100B400001A802F0C1FF0D24B5A13F4802F0AAFFA1
:100B5000054600203C49691A3B4A5054611E01AACF
:100B60008818394902F0B0FF01A802F0D1FFC4B2E1
:100B7000222001A90855002101AA601C115402225B
:100B80006DA101A8FFF70DFB691C01A802F09CFFF5
:100B900001A802F0BDFFC4B21A2001A90855002126
:100BA00001AA601C11541422AFF2C05101A8FFF732
:100BB000F8FA18B9AAA000F0D0FF02E0ACA000F04B
:100BC000CCFF4FF000089DE1ADA000F0C6FF002073
:100BD0001D498855ADA11C4802F064FF0546ACA133
:100BE00001A802F071FF01A802F092FFC4B201A9AE
:100BF0000819A91C02F068FF01A802F089FFC4B21D
:100C00000522AFF2186101A8FFF7CBFA40B90CA199
:100C10000848801C02F046FF054609A1A81C3DE1DA
:100C200048E1000000380140060000202B495044F4
:100C30000000000008010020D3D0D0C2C4DAC8DD13
:100C40000D0A00005443500040000020554450005D
:100C500041542B43495053544152543D000000002D
:100C6000434C4F5345204F4B0000000041542B4351
:100C70004950434C4F53453D3100000053485554B3
:100C8000204F4B0041542B434950534855540000CA
:100C900041542B4347434C4153533D2242220000D1
:100CA00041542B434744434F4E543D312C2249502D
:100CB000222C22434D4E45542200000041542B4328
:100CC000474154543D31000041542B434950435354
:100CD00047503D312C22434D4E4554220000000028
:100CE00041542B434950484541443D3100000000E8
:100CF00041542B4349504D55583D3000D5FDD4DA71
:100D0000B7A2C6F0C1ACBDD30D0A0000CAE4C8EB5F
:100D1000B4EDCEF3A3ACC7EBD6D8CAE40D0A0000FD
:100D2000BFAACABCB7A2CBCD2E2E2E2E2E2E2E2E73
:100D30002E2E2E0D0A0000003E00000041542B43D1
:100D4000495053454E44000053454E44204F4B00FC
:100D5000B7A2CBCDB3C9B9A60D0A0000B7A2CBCDBF
:100D6000CAA7B0DC0D0A0000BBB9C3BBC1ACBDD380
:100D70000D0A0000D0C4CCF8B3C9B9A60D0A000012
:100D8000D0C4CCF8CAA7B0DC0D0A0000803D000832
:100D9000B2E9BFB4B6CCD0C5A3BAB2E9BFB4A3BA66
:100DA0007878A3AC7878B4FAB1EDB6CCD0C5B5C438
:100DB000B4E6B4A2CEBBD6C30D0A0000CDCBB3F6C9
:100DC000B2E2CAD4A3BACAE4C8EBA1B0CDCBB3F6A1
:100DD0002BBBD8B3B5A1B10D0A00000041542B4381
:100DE0004D47463D3100000041542B434E4D493D97
:100DF000332C312C302C302C3000000041542B434C
:100E0000504D533D22534D222C22534D222C225320
:100E10004D2200000C000020B2E9BFB40000000029
:100E20002B0000002B434D54493A0000D3D0D0C2D0
:100E3000B6CCD0C50D0A0000B6CCD0C5CEBBD6C34B
:100E40003A200000B7A2CBCDB6CCD0C50D0A000029
:100E500041542B434D47533D222B383600000000B0
:100E6000B7A2CBCDB6CCD0C5B3C9B9A60D0A000088
:100E7000B7A2CBCDB6CCD0C5CAA7B0DC0D0A000056
:100E8000B2E9BFB4B6CCD0C50D0A0000A3BA0000C9
:100E900041542B434D47523D0000000002F002FE3A
:100EA0000746781BC4B2E7A000F057FE2146A81CF5
:100EB00000F066FEFFF768F94FF0000822E0E4A0BA
:100EC00000F04BFE0020E6498855E6A101A802F09B
:100ED000FBFD0924611E01AA8818E149091D02F0E1
:100EE000F3FD0322AFF6FC0101A8FFF75AF918B988
:100EF000DFA000F032FE02E0DDA000F02EFE4FF099
:100F0000000800BF00BFBCE52DE9F0418EB000260F
:100F1000002400250027A046DBA000F01EFEE3A071
:100F200000F01BFEEAA000F018FEF1A000F015FE94
:100F3000F7A000F012FEAFF27C1000F00EFEBDE054
:100F4000FC48008810F4004F2AD0FA480088C0F30B
:100F50000D060020F7490880AFF62C11C04802F0BA
:100F6000A1FD18B100200EB0BDE8F081F2A1BC488F
:100F700002F098FD08B1012512E0F1A1B84802F095
:100F800091FD08B102250BE0EFA1B54802F08AFD02
:100F900008B1032504E00DB9002501E0042501276F
:100FA000052D0ED2DFE805F0030E1A265C00E8A13D
:100FB000E94802F077FD20B1FFF7E6F8E7A000F07E
:100FC000CCFD7AE00222AFF6DC11E7A0FFF7E9F8EA
:100FD00018B9E6A000F0C1FD04256EE00222AFF6CC
:100FE000F411E5A0FFF7DDF810B9E4A000F0B5FDBD
:100FF000002562E0E4A000F0B0FD301FC1B29848C7
:10100000001D00F0BDFDE2A101A802F05DFD03247A
:1010100006E09349601C085C01A90855601C84B275
:10102000701EA042F5DC3B222046611C8CB201A957
:101030000A5400222046611C8CB201A90A540822DD
:10104000AFF6582101A8FFF7ACF820B9D1A000F005
:1010500084FD042503E0D2A000F07FFD00252CE0F4
:101060008FB10027D2A101A802F02EFD7C480078A4
:101070008DF80B0000208DF80C000322AFF69421B0
:1010800001A8FFF78EF8CCA1B34802F00BFD98B190
:101090000A2000F093FEBDA1AF4802F003FD804698
:1010A000C7A000F05AFD98F8010000F048FDB1A07B
:1010B00000F053FDFFF768F800BF00BF40E770B5D0
:1010C0000025FFF761F80322AFF6E021C0A0FFF78B
:1010D00068F820B1C1A000F040FD45F00105FFF720
:1010E00053F80322AFF6FC21C3A0FFF75AF8C8B9A2
:1010F000AFF23C41984802F0D5FC0446A4B1AFF2EF
:101100004841601C02F0CEFC0646BEA000F025FD62
:10111000301B401EC1B2601C00F032FD95A000F0F3
:101120001CFD01E045F00205FFF72EF80322AFF6A3
:101130004431B6A0FFF735F8C0B994A1864802F053
:10114000B1FC0446A4B1AFF6E811601C02F0AAFCA1
:101150000646B0A000F001FD301B801EC1B2A01CED
:1011600000F00EFD83A000F0F8FC01E045F004055E
:101170000322AFF68831AAA0FFF713F830B9ABA06D
:1011800000F0EBFC7BA000F0E8FC05E0B6A000F06E
:10119000E4FC78A000F0E1FC0322AFF6B031AFF63A
:1011A000B030FEF7FEFF30B9BEA000F0D6FC71A053
:1011B00000F0D3FC05E0C7A000F0CFFC6DA000F06C
:1011C000CCFC0322AFF6DC31C8A0FEF7EAFF30B951
:1011D000CAA000F0C2FC67A000F0BFFC05E0D1A0EF
:1011E00000F0BBFC63A000F0B8FCFEF7CDFF284682
:1011F00070BD70B5D0A000F0B0FCFEF7C5FF0522B1
:10120000AFF61841D5A0FEF7CCFF88B9D5A000F005
:10121000A4FC58A15048801C02F044FC04464E48EF
:10122000201AC1B24C48801C00F0AAFCFEF7ACFFAB
:101230000522AFF64841CDA0FEF7B3FF00B999E112
:10124000AAE10000B6CCD0C5C4DAC8DDA3BA00005C
:10125000C9E8D6C3D6D0D0C4BAC50D0A0000000074
:101260004000002041542B435343413D0000000007
:10127000B6CCD0C5D6D0D0C4BAC5C9E8D6C3B3C9D8
:10128000B9A60D0A000000004040404040404040E8
:10129000404040B2A6BAC5B2E2CAD4404040404045
:1012A0004040404040400D0A00000000B2A6B4F2A9
:1012B000B5E7BBB0A3BACAE4C8EBA1B0D6C2B5E7E4
:1012C000787878782BBBD8B3B5A1B10D0A000000AF
:1012D000BDD3CCFDB5E7BBB0A3BACAE4C8EBA1B09F
:1012E000BDD3CCFD2BBBD8B3B5A1B10D0A00000016
:1012F000B9D2B6CFB5E7BBB0A3BACAE4C8EBA1B0C8
:10130000B9D2B6CF2BBBD8B3B5A1B10D0A0000003E
:1013100044544D46D3EFD2F4A3BACAE4C8EBA1B00B
:10132000B5A5B8F6D7D6B7FB2BBBD8B3B5A1B10DD1
:101330000A0000000C000020BDD3CCFD000000001E
:10134000B9D2B6CF00000000D6C2B5E70000000059
:1013500052494E470000000008010020D3D0C0B41D
:10136000B5E70D0A0000000041544100BDD3CCFD9B
:10137000B3C9B9A60D0A000041544800B9D2B6CF8E
:10138000B3C9B9A60D0A0000D6C2B5E73A000000FD
:1013900041544400B2A6BDD0B3C9B9A60D0A00009D
:1013A000C7EBD6D8D0C2BAF4BDD00D0A00000000F9
:1013B00041542B5654533D0044544D463A000000CE
:1013C000B6D4B7BDB0B4CFC2B0B4BCFCA3BA0000B1
:1013D00041542B4350494E3F00000000C7EBBCEC8A
:1013E000B2E9CAD6BBFABFA8CAC7B7F1D3D0B2E533
:1013F000C8EB0D0A0000000041542B434F50533FEF
:1014000000000000D4CBD3AAC9CC3A0041542B43EE
:1014100053510000D0C5BAC5D6CAC1BF3A000000BA
:1014200041542B444445543D31000000C4A3BFE95E
:10143000D6A7B3D644544D46D2F4C6B5BDE2C2EBEE
:10144000A3ACBFC9D2D4D6B1BDD3CAB6B1F0B6D45D
:10145000B7BDCDA8BBB0B9FDB3CCD6D0B0B4CFC268
:10146000B5C4B0B4BCFC0000C4A3BFE9B2BBD6A7EE
:10147000B3D644544D46D2F4C6B5BDE2C2EBA3ACDC
:10148000B2BBBFC9D2D4CAB6B1F0B6D4B7BDCDA82D
:10149000BBB0B9FDB3CCD6D0B0B4CFC2B5C4B0B434
:1014A000BCFC0000C4A3BFE9D6A7B3D6545453B1C3
:1014B000BEB5D8D3EFD2F4A3ACBFC9D2D4D6B1BD98
:1014C000D3BDABCEC4B1BEB2A5B7C5B3C9D3EFD2FD
:1014D000F4000000C4A3BFE9B2BBD6A7B3D65454EE
:1014E00053B1BEB5D8D3EFD2F400000041542B4322
:1014F000495047534D4C4F433D3F0000C4A3BFE903
:10150000D6A7B3D6BBF9D5BEB6A8CEBBA3ACBFC9D0
:10151000D2D4D6B1BDD3BBF1C8A1B6A8CEBBD0C57D
:10152000CFA20000C4A3BFE9B2BBD6A7B3D6BBF914
:10153000D5BEB6A8CEBB00000D0A4E6952656E2D11
:10154000456C65632047534D2F4750525320B2E2FC
:10155000CAD4B3CCD0F20D0A0000000041542B4392
:10156000474D4900D6C6D4ECC9CC3A0041542B4370
:10157000474D4D00F0A000F0F0FAAFF20821F1481D
:1015800002F090FA0446EF48801E201AC1B2ED48DE
:1015900000F0F6FAFEF7F8FD0522AFF6B071EAA00A
:1015A000FEF7FFFD88B9EAA000F0D7FAAFF23C21C0
:1015B000E44802F077FA0446E248801E201AC1B2DD
:1015C000E04800F0DDFAFEF7DFFD0222E3A1E5A02E
:1015D000FEF7E7FDE0B9E5A000F0BFFAAFF628118D
:1015E000D848801E02F05EFA0446AFF63411601C43
:1015F00002F058FA0546AFF64011681C02F052FAA4
:1016000004460B21601C00F0BBFAFEF7BDFD00BFD5
:10161000AFF2A02000F0A1FA70BD00240DE0D6A02A
:1016200000F09BFA4FF4487000F0C8FBD6A000F021
:1016300094FA4FF4C87000F0C1FB0522AFF6406188
:10164000D5A0FEF7AEFD0028E9D1C822AFF6506163
:10165000D2A0FEF7A6FDFFF7CCFDFFF730FD002876
:1016600012D10124CFA000F078FAD8A000F075FACA
:10167000D8A000F072FAD9A000F06FFAD9A000F05B
:101680006CFADAA000F069FA42E0002C40D0D948A8
:10169000008810F4004F3BD00020D6490880D6A126
:1016A000D74802F0FFF910B1FFF72EFC1EE0D5A1DC
:1016B000D34802F0F7F910B1FFF7B9F916E0D3A15A
:1016C000CF4802F0EFF910B1FEF7BDFE0EE0D1A158
:1016D000CB4802F0E7F910B1FEF703FE06E0CFA118
:1016E000C74802F0DFF908B1FEF791FDADA000F0A8
:1016F00034FAB6A000F031FAB6A000F02EFAB7A086
:1017000000F02BFAB7A000F028FAB8A000F025FAF4
:10171000BBE700F01FFB00F0CCFA4FF4E13000F023
:10172000BBF94FF4E13000F041FA00F07BFBBDA0C3
:1017300000F013FAC1A000F010FAFFF76EFF10B529
:10174000C34801F0D7FFC4B20020C2490870A948BD
:10175000008810F4004F2BD1A648008810F4804F69
:101760000CD00A2C03D00020A249088020E0A14818
:10177000008840F400409F49088019E00D2C06D1F4
:101780009C48008840F480409A49088010E09948BD
:101790000088C0F30D009A490C5496480088401CFC
:1017A0009449088008460088C72801DD0020088089
:1017B00010BD10B500240020A7490870A74801F00B
:1017C00099FFC4B25F48801EA54909784454A448D3
:1017D0000078401CA249087008460078C82801DD3E
:1017E0000020087010BD10B50121880701F02DFE02
:1017F000002843D00121880701F038FE994800787D
:1018000028B100F090FA00209649087004E000F03A
:1018100091FA01209349087093480078012804DB6D
:1018200091480078401C904908709048007820B199
:101830008F480088401C8E4908808D4800888D495B
:101840000978884204DD00208849087088490880AA
:1018500081480078401C804908706648008830F450
:1018600000400BD07B480078401C7A49087008463D
:101870000078C82802DB00205E49088010BD02788D
:101880000B7803700A707047F0B507460D460024C8
:101890000AE00A2097FBF0F100FB11703030285568
:1018A0000A2097FBF0F7641C002FF2D10020285586
:1018B0002646002406E0AA19121B511E2819FFF71C
:1018C000DEFF641C06EBD671B4EB610FF3DB002086
:1018D000A855F0BDF0B50346002000BF26E00E5C21
:1018E00035110E5C06F00F04092D06DD0E5C37275E
:1018F00007EB261603F8106005E00E5C302707EBB7
:10190000261603F81060092C07DD0E5C06F00F06A2
:10191000373647007F1CDE5506E00E5C06F00F06EA
:10192000303647007F1CDE55461CF0B29042D6DBB5
:10193000002603F81260F0BDC4A3BFE9D0CDBAC53C
:101940003A0000000A01002041542B4347534E0047
:10195000B2FAC6B7D0F2C1D0BAC53A002B434E5541
:101960004D00000041542B434E554D00B1BEBBFA13
:10197000BAC5C2EB3A000000CEB4BCECB2E2B5BDD1
:10198000C4A3BFE90D0A0000D5FDD4DAB3A2CAD4BE
:10199000C1ACBDD30D0A0000415400004154453094
:1019A00000000000C7EBD1A1D4F13AD1A1D4F1CF0E
:1019B000E0D3A6B5C4D6D0CEC42BBBD8B3B5A3ACA8
:1019C000D4D9B7A2CBCD0D0A00000000B2A6BAC58B
:1019D00009000000B6CCD0C50900000047505253A2
:1019E00009000000B6A8CEBB09000000D3EFD2F476
:1019F0000D0A00000C000020B2A6BAC500000000CD
:101A000040000020B6CCD0C5000000004750525323
:101A100000000000B6A8CEBB00000000D3EFD2F457
:101A20000000000047534DC4A3BFE9B6CCD0C5B2F7
:101A3000E2CAD4B3CCD0F20D0A00000047534DC423
:101A4000A3BFE9D4DAD7A2B2E1CDF8C2E70D0A000C
:101A50000038014004000020050000200044004040
:101A6000000000200A0000200600002007000020DF
:101A70000200002001000020704700BFFEE700BF09
:101A8000FEE700BFFEE700BFFEE770477047704704
:101A900010B500F0B6F910BD10B586B004460121AE
:101AA00044F2040000F070FD7B4801F0E3FC4FF4C9
:101AB0000070ADF8140018208DF8170003208DF881
:101AC000160005A9754800F0A9FA4FF48060ADF83A
:101AD000140004208DF8170005A9704800F09EFA44
:101AE00001940020ADF80800ADF80A00ADF80C0034
:101AF000ADF810000C20ADF80E0001A9664801F009
:101B0000FCFC25208DF8000002208DF8010001204A
:101B10008DF802008DF80300684600F0B6F9012246
:101B200040F225515C4801F080FD01215A4801F046
:101B300070FD4021584801F054FE06B010BD10B5AC
:101B4000044600BF4021544801F03EFE0028F9D071
:101B50002146514801F0CAFD10BD10B504460BE006
:101B600000BF40214C4801F02FFE0028F9D014F8A6
:101B7000011B494801F0BAFD20780028F0D110BDC2
:101B800070B504460D4684B10DE000BF40214248C7
:101B900001F01AFE0028F9D014F8011B3E4801F0AC
:101BA000A5FD681EC5B2002DEFD170BD10B586B081
:101BB00004460121480400F0F4FC0121042000F057
:101BC000E3FC374801F056FC0420ADF8140018205F
:101BD0008DF8170003208DF8160005A92F4800F096
:101BE0001DFA0820ADF8140004208DF8170005A98F
:101BF0002A4800F013FA01940020ADF80800ADF86F
:101C00000A00ADF80C00ADF810000C20ADF80E0085
:101C100001A9234801F071FC26208DF80000012065
:101C20008DF8010000208DF8020001208DF80300DE
:101C3000684600F02AF9012240F22551184801F0C7
:101C4000F4FC0121164801F0E4FC4021144801F0A5
:101C5000C8FD06B010BD10B5044600BF40211048B5
:101C600001F0B2FD0028F9D021460D4801F03EFDFB
:101C700010BD10B504460BE000BF4021084801F03C
:101C8000A3FD0028F9D014F8011B054801F02EFD32
:101C900020780028F0D110BD003801400008014034
:101CA0000044004010B54FF4F071294800F063FA89
:101CB00010BD08B50121082000F066FC4FF47870D3
:101CC000ADF8000010208DF8030003208DF802000D
:101CD00069461F4800F0A2F9FFF7E4FF08BD10B500
:101CE00020211B4800F045FA10BD10B520211848EE
:101CF00000F041FA10BD10B54021154800F039FA46
:101D000010BD10B54021124800F035FA10BD10B5D5
:101D100080210F4800F02DFA10BD10B580210C482D
:101D200000F029FA10BD10B54FF48071084800F09A
:101D300020FA10BD10B54FF48071054800F01BFA71
:101D400010BD10B54FF4F071014800F012FA10BD4B
:101D5000000C014030B500BF2E4800684FF47A7285
:101D6000B0FBF2F1B1F1807F01D301201BE021F043
:101D70007F40401E4FF0E022506150170F22002894
:101D800006DA1301244C00F00F052D1F635502E005
:101D90001301224C235400BF00204FF0E022906139
:101DA0000720106100200028D6D14FF0E020006904
:101DB00020F001004FF0E021086130BD18490860B3
:101DC0004FF0E021096941F001014FF0E02211617B
:101DD00000BF134909680029FBD170474FF47A719D
:101DE00041430F4A11604FF0E021096941F00101C0
:101DF0004FF0E022116100BF094909680029FBD1B9
:101E000070470748006820B105480068401E044933
:101E1000086070472800002018ED00E000E400E0B2
:101E2000100000201FB50121084600F0BAFB42F265
:101E30000F70ADF8080041F61F40ADF80400002017
:101E4000ADF80A00ADF8060001A94FF0804000F09F
:101E5000D7FC1C208DF8000001208DF801008DF8C2
:101E600002008DF80300684600F00FF801221146C9
:101E7000900701F03CF80121880701F01DF81FBD13
:101E800031490143314A1160704770B50021002388
:101E90000F22C4780CB32D4C246804F4E064C4F51C
:101EA000E064210AC1F10403CA40447804FA03F152
:101EB0008478144021430901254C0678A155047803
:101EC00004F01F050124AC4005786D114FF0E026A9
:101ED00006EB8505C5F8004109E0047804F01F050C
:101EE0000124AC401B4D0678761145F8264070BDA4
:101EF000194A0A400243154B1B1F1A60704739B13B
:101F0000124A121D12680243104B1B1D1A6006E094
:101F10000E4A121D126882430C4B1B1D1A6070473B
:101F2000042808D14FF0E021096941F004014FF085
:101F3000E022116107E04FF0E021096921F004017E
:101F40004FF0E022116170470000FA050CED00E04F
:101F500000E400E080E100E080FFFF1F10B50446D0
:101F6000CA48844208D10121042000F027FB002147
:101F7000042000F023FB46E0C548844208D101213B
:101F8000082000F01BFB0021082000F017FB3AE0BE
:101F9000C048844208D10121102000F00FFB00212D
:101FA000102000F00BFB2EE0BB48844208D1012139
:101FB000202000F003FB0021202000F0FFFA22E0A7
:101FC000B648844208D10121402000F0F7FA0021F0
:101FD000402000F0F3FA16E0B148844208D1012114
:101FE000802000F0EBFA0021802000F0E7FA0AE000
:101FF000AC48844207D10121801500F0DFFA0021AE
:10200000A01500F0DBFA10BD10B50121084600F064
:10201000D5FA0021012000F0D1FA10BD2DE9F041E0
:10202000024600250026002000230024002791F806
:1020300003C00CF00F0591F803C01CF0100F03D083
:1020400091F802C04CEA050591F800C0BCF1000F00
:1020500031D0146800202BE04FF0010C0CFA00F393
:10206000B1F800C00CEA03069E4220D183004FF075
:102070000F0C0CFA03F7BC4305FA03FC4CEA04040A
:1020800091F803C0BCF1280F06D14FF0010C0CFAF7
:1020900000FCC2F814C00AE091F803C0BCF1480F7C
:1020A00005D14FF0010C0CFA00FCC2F810C0401C26
:1020B0000828D1D31460B1F800C0BCF1FF0F34DDA3
:1020C000546800202EE000F1080C4FF0010808FAD7
:1020D0000CF3B1F800C00CEA03069E4221D1830044
:1020E0004FF00F0C0CFA03F7BC4305FA03FC4CEA63
:1020F000040491F803C0BCF1280F05D100F1080CCD
:1021000008FA0CF8C2F8148091F803C0BCF1480F2B
:1021100007D100F1080C4FF0010808FA0CF8C2F8DA
:102120001080401C0828CED35460BDE8F0814FF6E3
:10213000FF710180022181700421C1707047024645
:10214000002093680B4201D0012000E0002070477E
:102150000146886880B2704702460020D3680B426F
:1021600001D0012000E0002070470146C86880B21D
:10217000704701617047416170470AB1016100E039
:1021800041617047C16070474FF480320A438261F9
:102190008161826182698269704702460020424BF8
:1021A00018684FF68073184040EA021008433E4B0F
:1021B000186070473D49C8617047F0B50A46002372
:1021C00000240021002500F00046B6F1004F02D1A6
:1021D000354EF16901E0344E7168C0F3034583B2B6
:1021E00000F44016B6F5401F08D121F070612E4E64
:1021F000766826F070662C4F7E6012E000F4801640
:10220000B6F5801F06D1032606FA05F4A14341F076
:10221000706106E0460D360103FA06F6B14341F05F
:10222000706122B1460D360103FA06F6314300F023
:102230000046B6F1004F02D11B4EF16101E01A4E8B
:102240007160F0BD30B500228B071C0F0F2303FA1D
:1022500004F2154B08338C1053F824309343124C7E
:1022600008348D1044F8253023468C1053F8243060
:102270008C07240F00FA04F423430B4C08348D1010
:1022800044F8253030BD0A49086070470008014015
:10229000000C0140001001400014014000180140F2
:1022A000001C0140002001400000014000002042CD
:1022B000DC002042DD48006840F00100DB49086096
:1022C00008464068DA490840D8494860084600682E
:1022D000D8490840D54908600846006820F48020A5
:1022E00008600846406820F4FE0048604FF41F0074
:1022F00088607047CD49096821F48031CB4A11606C
:102300001146096821F480211160B0F5803F03D0A7
:10231000B0F5802F0ED106E0C449096841F4803140
:10232000C24A116007E0C149096841F4A021BF4ACF
:10233000116000E000BF00BF704710B501460022E9
:10234000002300204A11012A02D1B84C236806E07C
:10235000022A02D1B54C236A01E0B44C636A01F051
:102360001F02012494401C4201D0012000E0002003
:1023700010BD38B5002000900024002500BF31209A
:10238000FFF7DBFF05460098401C00900098B0F571
:10239000A06F01D0002DF2D03120FFF7CEFF08B1A1
:1023A000012400E00024204638BD014600209F4A59
:1023B000106820F0F80040EAC100106070479E49A4
:1023C0000860704702460020984B586820F47C1043
:1023D00042EA01031843954B5860704796490866D6
:1023E000704701460020914A506820F003000843DE
:1023F000506070478D48406800F00C0070470146FF
:1024000000208A4A506820F0F0000843506070476E
:1024100001460020854A506820F4E060084350607F
:10242000704701460020814A506820F4605040EA1D
:10243000C1005060704729B17C4A527A02437B4BFD
:102440005A7204E0794A527A8243784B5A72704742
:102450007A490860704701460020744A506820F4A9
:1024600040400843506070470021754A11706F4A20
:1024700082F82010012802D0042808D103E00121AD
:102480006F4A117004E005216D4A117000E000BF31
:1024900000BF70476B49086070476449096A01438F
:1024A000624A11627047674944390860704730B525
:1024B00000210022002400235C4D6D6805F00C0112
:1024C00021B1042905D0082923D105E05E4D05601E
:1024D00022E05D4D05601FE0544D6D6805F47012FB
:1024E000524D6D6805F48034022505EB92421CB90B
:1024F000564D554305600BE04C4D6D6815F4003F9B
:1025000003D0524D5543056002E04F4D55430560E1
:1025100002E04D4D056000BF00BF444D6D6805F001
:10252000F00109094A4D6B5C0568DD4045603F4D8F
:102530006D6805F4E061090A454D6B5C4568DD4056
:1025400085603A4D6D6805F46051C90A404D6B5C79
:102550004568DD40C560354D6D6805F44041890B27
:102560003C4D6B5CC568B5FBF3F5056130BD29B129
:102570002E4A526902432D4B5A6104E02B4A52699C
:1025800082432A4B5A61704729B1284A9269024313
:10259000264B9A6104E0254A92698243234B9A6153
:1025A000704729B1214AD2690243204BDA6104E025
:1025B0001E4AD26982431D4BDA61704729B11B4A1A
:1025C000D2680243194BDA6004E0184AD2688243A9
:1025D000164BDA60704729B1144A12690243134B53
:1025E0001A6104E0114A12698243104B1A61704764
:1025F00014494039086070470F49C86470470B4957
:10260000C87170470948406A40F0807007494862C5
:10261000704701460020054A92680A4201D0012015
:1026200000E00020704701498872704700100240A6
:102630000000FFF8FFFFF6FE00004242D8004242D1
:10264000201002408004424200127A0000093D003E
:10265000140000202400002010B50446FE488442E7
:1026600008D10121C014FFF7A9FF0021E014FFF7F2
:10267000A5FFC4E0B4F1804F08D101210846FFF75F
:10268000AAFF00210120FFF7A6FFB8E0F34884422B
:1026900008D101210220FFF79EFF00210220FFF751
:1026A0009AFFACE0EE48844208D101210420FFF7F4
:1026B00092FF00210420FFF78EFFA0E0E94884424A
:1026C00008D101210820FFF786FF00210820FFF72D
:1026D00082FF94E0E448844208D101211020FFF7F2
:1026E0007AFF00211020FFF776FF88E0DF48844260
:1026F00008D101212020FFF76EFF00212020FFF7E5
:102700006AFF7CE0DA48844208D101214014FFF7D7
:1027100055FF00216014FFF751FF70E0D548844257
:1027200009D10121C804FFF749FF00214FF400201F
:10273000FFF744FF63E0D048844209D10121080536
:10274000FFF73CFF00214FF48010FFF737FF56E002
:10275000CA48844209D101214805FFF72FFF002113
:102760004FF40010FFF72AFF49E0C548844208D122
:1027700001214020FFF72FFF00214020FFF72BFF12
:102780003DE0C048844208D101218020FFF723FFAB
:1027900000218020FFF71FFF31E0BB48844208D1B1
:1027A00001218015FFF717FF0021A015FFF713FF88
:1027B00025E0B648844209D101210804FFF7FEFE56
:1027C00000214FF48030FFF7F9FE18E0B048844252
:1027D00009D101214804FFF7F1FE00214FF4003038
:1027E000FFF7ECFE0BE0AB48844208D101218804DE
:1027F000FFF7E4FE00214FF48020FFF7DFFE10BD5D
:1028000000220288944B98420ED0994B98420BD0EC
:10281000B0F1804F08D0914B984205D0904B984230
:1028200002D0904B984204D14FF68F731A404B88D8
:102830001A438D4B984207D08C4B984204D04FF6E8
:10284000FF431A40CB881A4302808B8883850B880C
:102850000385814B98420BD0854B984208D08B4B17
:10286000984205D08A4B984202D08A4B984201D1B7
:102870000B7A038601238382704770B500240022FF
:102880000023058C4FF6FE7635400584028C838844
:10289000048B4FF68F752C40B51E2C400D882C43B1
:1028A000751E2A400D892A434D882A436A4DA84245
:1028B0000BD06F4DA84208D0744DA84205D0744D7E
:1028C000A84202D0734DA84213D14FF6F7752A40A3
:1028D0004D892A434FF6FB752A408D882A434FF6CF
:1028E000FF652B404FF6FF552B408D892B43CD893B
:1028F0002B4383800483CD888586028470BD70B5A8
:10290000002400220023058C4FF6EF763540058425
:10291000028C8388048B48F6FF752C404FF6FF45E8
:102920002C400D884FF6FF7606EA05252C434FF61E
:10293000DF752A400D8906EA05152A434D8806EA07
:1029400005152A43444DA84202D0494DA8421DD145
:102950004FF67F752A404D894FF6FF7606EA05153A
:102960002A434FF6BF752A408D8806EA05152A438B
:102970004FF6FF352B404FF2FF752B408D8906EA4D
:1029800085052B43CD8906EA85052B438380048387
:10299000CD880587028470BD70B500240022002315
:1029A000058C4FF6FF6635400584028C8388848B46
:1029B0004FF68F752C404FF6FC752C400D882C433C
:1029C0004FF6FF552A400D894FF6FF7606EA05259A
:1029D0002A434D8806EA05252A431F4DA84202D006
:1029E000234DA8421DD14FF2FF752A404D894FF665
:1029F000FF7606EA05252A434FF6FF352A408D88E3
:102A000006EA05252A434EF6FF752B404DF6FF7565
:102A10002B408D8906EA05152B43CD8906EA05155D
:102A20002B4383808483CD888587028470BD70B5F5
:102A3000002200230024058C4EF6FF7635400584E5
:102A4000038C8488828B48F6FF752A404FF6FF4539
:102A50002A400D8820E00000002C014000040040C6
:102A600000080040000C004000100040001400402E
:102A700000340140004C014000500140005401402E
:102A800000180040001C00400020004000400140B1
:102A900000440140004801404FF6FF7606EA052554
:102AA0002A434DF6FF752B400D8906EA05352B4369
:102AB0004D8806EA05352B43FA4DA84202D0FA4D5F
:102AC000A84208D14BF6FF752C408D894FF6FF7652
:102AD00006EA85152C4384808283CD88A0F8405077
:102AE000038470BD828B4FF2FF331A408283828B46
:102AF0004FF6FF7303EA01231A4382837047F0B550
:102B00000C461546002200210026078C4EF6FF7C5D
:102B100007EA0C070784828B018C4FF6FF7707EAE0
:102B2000043640F6FF473A404FF6FF7707EA05279D
:102B30003A434FF6FF7707EA03373A43D94FB84293
:102B40000ED0D94FB8420BD0B0F1804F08D0D74F3C
:102B5000B84205D0D64FB84202D0D64FB84206D1BF
:102B60004DF6FF77394046F48057394305E047F684
:102B7000FF57394044F48057394382830184F0BDC4
:102B8000828B4FF6F3731A408283828B0A438283CF
:102B90007047F0B50C461546002200210026078C30
:102BA0004FF6FF6C07EA0C070784828B018C4FF607
:102BB000FF7707EA04264FF60C773A404FF6FF7787
:102BC00007EA03172F433A43B64FB8420ED0B64F29
:102BD000B8420BD0B0F1804F08D0B44FB84205D006
:102BE000B34FB84202D0B34FB84206D14FF6FF57A9
:102BF000394046F48077394305E04FF2FF573940BA
:102C000044F48077394382830184F0BD028B4FF214
:102C1000FF331A400283028B4FF6FF7303EA01234E
:102C20001A4302837047F0B50C4615460022002176
:102C30000026078C4FF6EF7C07EA0C070784028B0F
:102C4000018C4FF6FF7707EA041640F6FF473A403B
:102C50004FF6FF7707EA03373A434FF6FF7707EA65
:102C600005273A438F4FB8420ED08F4FB8420BD052
:102C7000B0F1804F08D08D4FB84205D08C4FB8428C
:102C800002D08C4FB84206D14FF6DF77394046F07C
:102C90001007394305E04FF65F77394044F01007DD
:102CA000394302830184F0BD028B4FF6F3731A405F
:102CB0000283028B0A4302837047F0B50C46154627
:102CC00000220021068C4FF6FE773E400684028BE0
:102CD000018C4FF60C7632407E1C06EA03162E431A
:102CE0003243704EB0420ED06F4EB0420BD0B0F1B6
:102CF000804F08D06D4EB04205D06D4EB04202D02C
:102D00006C4EB04206D14FF6FD76314044F00106DC
:102D1000314305E04FF6F576314044F0010631438A
:102D200002830184F0BD70B505460C465D488542BE
:102D30000ED05D4885420BD0B5F1804F08D05B487E
:102D4000854205D05A48854202D05A48854200D172
:102D500000E000BF208850B92389A28861882846F6
:102D6000FFF7ABFFE1882846FFF79EFF25E02088AC
:102D700004280AD12389A28861882846FFF753FFD7
:102D8000E1882846FFF742FF17E0208808280AD18B
:102D90002389A28861882846FFF7FBFEE188284640
:102DA000FFF7EEFE09E02389A28861882846FFF735
:102DB000A6FEE1882846FFF795FE70BD2DE9F0419B
:102DC00005460C4600260127608808B9022600E067
:102DD0000026A088012801D1022700E001272088D1
:102DE000A0B92389A28861882846FFF766FFE18899
:102DF0002846FFF759FF23893A4631462846FFF710
:102E000012FFE1882846FFF701FF13E02389A2881B
:102E100061882846FFF707FFE1882846FFF7F6FE9E
:102E200023893A4631462846FFF747FFE18828467E
:102E3000FFF73AFFBDE8F0810A884B881A438B8878
:102E40001A43CB881A430B891A434B891A438B893F
:102E50001A43A0F8442070474FF6FF71818000218B
:102E60000180C18041800172704700210180418052
:102E70008180C180018141818181C18170470021B0
:102E800001804180012181800021C1800181704742
:102E90000021018041808180C18001814181818147
:102EA00070470000002C0140003401400004004045
:102EB00000080040000C004021B1028842F00102ED
:102EC000028004E002884FF6FE731A4002807047C9
:102ED00031B1B0F8442042F40042A0F8442005E0AB
:102EE000B0F84420C2F30E02A0F8442070471AB193
:102EF00083890B43838102E083898B4383817047FD
:102F00008182704741EA0203A0F8483070471AB145
:102F100083890B43838102E083898B4383817047DC
:102F200001894FF6F8721140018170470A4600216D
:102F300001894FF68F73194011430181704730B5F5
:102F400004460D4629462046FFF7F0FF208940F051
:102F50000700208130BD2DE9F04104460D4616469C
:102F60001F46602D06D13B46012231462046FFF721
:102F70005AFE05E03B46012231462046FFF79DFE02
:102F800029462046FFF7D2FF208940F00700208124
:102F9000BDE8F08130B50C4600210189C9B24FF679
:102FA000FF7505EA0325154325432943018130BDFB
:102FB0002DE9F04105460E46174698460024434643
:102FC0003A4631462846FFF7E5FF2C894FF6F87060
:102FD000044044F007044FF68F70044044F070043E
:102FE0002C81BDE8F081F0B504460D4616461F461B
:102FF0003B46324629462046FFF7CCFF208940F465
:1030000080402081F0BD0185828270470A46002100
:1030100001884FF68F731940114301807047F0B556
:103020000C4615461E460021002200230189028B12
:10303000038C4FF6F877394021434FF6FC473A406E
:1030400040F201173A434FF6DD773B404FF6FF77EA
:1030500007EA06172F433B43018102830384F0BD37
:103060000A460021018B4FF68F73194011430183EB
:1030700070470A460021018B48F6FF7319404FF64E
:10308000FF7303EA02231943018370470A460021B4
:10309000818B4FF68F7319401143818370470A4625
:1030A0000021818B48F6FF7319404FF6FF7303EA46
:1030B000022319438183704721B1028842F08002C4
:1030C000028004E002884FF67F731A400280704746
:1030D00021B1828842F00402828004E082884FF6A7
:1030E000FB731A408280704721B1828842F0080247
:1030F000828004E082884FF6F7731A40828070471E
:1031000021B1828842F00102828004E082884FF679
:10311000FE731A40828070470A460021018B4FF6E9
:10312000F77319401143018370470A460021018B50
:103130004FF2FF7319404FF6FF7303EA022319435E
:10314000018370470A460021818B4FF6F7731940BF
:103150001143818370470A460021818B4FF2FF7330
:1031600019404FF6FF7303EA022319438183704726
:103170000A460021018B4FF6FB731940114301836E
:1031800070470A460021018B4FF6FF3319404FF676
:10319000FF7303EA02231943018370470A460021A3
:1031A000818B4FF6FB7319401143818370470A46A8
:1031B0000021818B4FF6FF3319404FF6FF7303EA6E
:1031C00002231943818370470A460021018B4FF681
:1031D0007F7319401143018370470A460021018B18
:1031E000C1F30E014FF6FF7303EA02231943018373
:1031F00070470A460021818B4FF67F7319401143B7
:10320000818370470A460021818BC1F30E014FF67E
:10321000FF7303EA02231943818370470A460021A2
:10322000018C4FF6FD7319401143018470470A4623
:103230000021018C4FF6F773194011430184704748
:103240000A460021018C4FF6DF7319404FF6FF73D9
:1032500003EA02131943018470470A460021018CD6
:103260004FF67F7319404FF6FF7303EA02131943B9
:10327000018470470A460021018C4FF6FF53194024
:103280004FF6FF7303EA02231943018470470A468D
:103290000021018C4FF2FF7319404FF6FF7303EAD0
:1032A00002231943018470470A460021018C4DF620
:1032B000FF7319404FF6FF7303EA02331943018489
:1032C000704730B5002301248C40A3B2048C9C438A
:1032D0000484048C02FA01F5ADB22C43048430BDA1
:1032E00030B5002304248C40A3B2048C9C43048496
:1032F000048C02FA01F5ADB22C43048430BD70B5E4
:103300000346002000241846183001258D40ACB239
:103310001D8CA5431D8409B1082909D100EB61006A
:10332000056825F0700505600568154305600EE029
:103330000D1FC5F34E052844056825F4E0450560DA
:1033400005684FF6FF7606EA02263543056070BD34
:1033500021B1028842F00202028004E002884FF6A6
:10336000FD731A400280704721B1028842F00402C6
:10337000028004E002884FF6FB731A400280704717
:1033800021B1828842F08002828004E082884FF678
:103390007F731A408280704702884FF6F7731A4095
:1033A000028002880A430280704782884FF68F733A
:1033B0001A40828082880A438280704702894FF6D1
:1033C000F8731A40028102890A4302817047028918
:1033D0004FF67F731A40028102890A4302817047C7
:1033E0008184704781857047818670470187704767
:1033F00081877047A0F84010704702884FF6FF435E
:103400001A40028002880A43028070470146888E73
:1034100070470146088F70470146888F7047014604
:10342000B1F8400070470146888C70470146088D0E
:10343000704702460020138A0B4201D0012000E0B1
:1034400000207047CA430282704730B50246002010
:1034500000230024158A05EA0103958905EA010481
:1034600013B10CB1012000E0002030BDCA4302823C
:103470007047000010B50446FB48844209D1012181
:103480008803FFF79BF800214FF48040FFF796F880
:1034900032E0F648844209D101214804FFF79BF845
:1034A00000214FF40030FFF796F825E0F048844201
:1034B00009D101218804FFF78EF800214FF4802004
:1034C000FFF789F818E0EB48844209D10121C804CC
:1034D000FFF781F800214FF40020FFF77CF80BE0A4
:1034E000E548844208D101210805FFF774F800215E
:1034F0004FF48010FFF76FF810BD2DE9F04786B04C
:1035000005460E460024A24600BFA1460027B0890A
:1035100000B100BF2F462C8A4CF6FF700440F088A3
:1035200004432C82AC894EF6F3100440B0883189F4
:103530000843718908430443AC81AC8A4FF6FF40CD
:103540000440B0890443AC8201A8FEF7B0FFC6482E
:10355000874202D1DDF810A001E0DDF80CA0A889B7
:1035600010F4004F08D00AEBCA0000EB0A103168D3
:103570004900B0FBF1F807E00AEBCA0000EB0A10C3
:1035800031688900B0FBF1F86420B8FBF0F0040169
:103590002009642101FB1089A88910F4004F08D08C
:1035A000322000EBC900B0FBF1F000F0070004434B
:1035B00008E0322000EB09106421B0FBF1F000F0CC
:1035C0000F0004432C8106B0BDE8F0874FF416517C
:1035D000016000218180C18001810C214181002195
:1035E0008181704710B502460020108A4FF2FF0318
:1035F00018400B884C8823438C882343CC88234372
:103600001843108210BD0021018041808180C1805B
:10361000704721B1828942F40052828104E082899C
:103620004DF6FF731A4082817047F0B503460024BF
:10363000002600250020A1F510676A3F00D100BFD9
:103640001846C1F3421401F01F06012707FA06F5D8
:10365000012C01D10C3004E0022C01D1103000E02B
:1036600014301AB107682F43076002E00768AF43C0
:103670000760F0BD1AB1838A0B43838202E0838A1C
:103680008B4383827047028A4FF6F0731A4002829E
:10369000028A0A430282704782894FF2FF731A40FE
:1036A000828182890A438281704721B1828942F0F6
:1036B0000202828104E082894FF6FD731A40828102
:1036C0007047028A4FF6DF731A400282028A0A4369
:1036D0000282704721B1028A42F48042028204E0F1
:1036E000028A4BF6FF731A4002827047C1F3080248
:1036F0008280704701468888C0F30800704781893E
:1037000041F0010181817047028BD2B20283028BAA
:1037100042EA012202837047028B02F47F42028355
:10372000028B0A430283704721B1828A42F0200251
:10373000828204E0828A4FF6DF731A4082827047E9
:1037400021B1828A42F01002828204E0828A4FF61E
:10375000EF731A408282704721B1828A42F00802D8
:10376000828204E0828A4FF6F7731A4082827047A1
:1037700021B1828942F40042828103E08289C2F34E
:103780000E028281704721B1828A42F400628282F5
:1037900004E0828A4FF2FF731A4082827047828A65
:1037A0004FF6FB731A408282828A0A4382827047F4
:1037B00021B1828A42F00202828204E0828A4FF6BC
:1037C000FD731A408282704702460020B1F5007FE7
:1037D00000D100BF13880B4201D0012000E000207F
:1037E000704701F40072B2F5007F00D100BFCA43F8
:1037F0000280704770B50246002400230025002097
:10380000A1F510666A3E00D100BFC1F3421501F078
:103810001F03012606FA03F3012D02D196893340D6
:1038200006E0022D02D1168A334001E0968A334029
:103830000C12012606FA04F41688344013B10CB1B8
:10384000012000E0002070BD10B500220023A1F58A
:1038500010646A3C00D100BF0A1201249440A3B254
:10386000DC43048010BD00000038014000440040EB
:1038700000480040004C0040005000400CB50020C3
:10388000019000906B48006840F4803069490860FE
:1038900000BF6848006800F4003000900198401CA8
:1038A0000190009818B90198B0F5A06FF1D1614866
:1038B000006810F4003F02D00120009001E00020D9
:1038C00000900098012842D15B48006840F0100049
:1038D000594908600846006820F00300086008465F
:1038E000006840F002000860524840685149486052
:1038F0000846406848600846406840F48060486078
:103900000846406820F47C1048600846406840F44F
:10391000E81048600846006840F08070086000BF0A
:103920004448006810F0007FFAD04248406820F018
:103930000300404948600846406840F00200486083
:1039400000BF3C48406800F00C000828F9D10CBDCD
:1039500010B5FFF793FF10BD10B53648006840F072
:10396000010034490860084640683449084031493C
:10397000486008460068324908402E4908600846F9
:10398000006820F4802008600846406820F4FE00AB
:1039900048604FF41F008860FFF7DAFF4FF00060C7
:1039A0002849086010BD10B5002100200022214BDD
:1039B0005B6803F00C0121B1042906D0082928D145
:1039C00007E0214B214C236027E01F4B1F4C236055
:1039D00023E0184B5B6803F47010164B5B6803F42C
:1039E0008032022303EB904022B9194B4343174C1A
:1039F00023600DE00F4B5B6813F4003F04D0144BC1
:103A00004343124C236003E00F4B43430F4C2360AE
:103A100003E00D4B0D4C236000BF00BF054B5B68FE
:103A2000C3F303130B4CE15C084B1B68CB40074C02
:103A3000236010BD00100240002002400000FFF88B
:103A4000FFFFF6FE08ED00E000127A0028000020DB
:103A500000093D002C000020094880470948004724
:103A6000FEE7FEE7FEE7FEE7FEE7FEE7FEE7FEE72E
:103A7000FEE7FEE704480549054A064B704700008B
:103A800059390008ED0000083002002030080020FD
:103A90003004002030040020014A00F0D3B80000B8
:103AA0003C00002030B505460B462A4613F8014B72
:103AB00012F8010B08B1A042F8D01CB1002802D0C6
:103AC0006D1CF1E7284630BD40EA0103024630B5DF
:103AD0009B0710D14FF0013400E008C208C91D1B3C
:103AE0009D4315EAC41FF8D013F0FF0102F8011B33
:103AF0000DD01B0AF8E711F8013B002B02F8013B3F
:103B000005D011F8013B002B02F8013BF3D130BD89
:103B100010B5431C02E010F8011B71B18107FAD106
:103B20004FF0013202C88C1A8C4314EAC211F9D04A
:103B3000C01A0A0603D0C01E10BDC01A10BD0A0468
:103B400001D0801E10BD0902FCD0401E10BD032A0A
:103B500040F2308010F0030C00F0158011F8013BAA
:103B6000BCF1020F624498BF11F801CB00F8013B91
:103B700038BF11F8013BA2F1040298BF00F801CB55
:103B800038BF00F8013B11F0030300F02580083A2C
:103B9000C0F0088051F8043B083A51F804CBA0E883
:103BA0000810F5E7121D5CBF51F8043B40F8043BD8
:103BB000AFF30080D20724BF11F8013B11F801CB0D
:103BC00048BF11F8012B24BF00F8013B00F801CBDE
:103BD00048BF00F8012B704710B5203AC0F00B80A9
:103BE000B1E81850203AA0E81850B1E81850A0E801
:103BF0001850BFF4F5AF5FEA027C24BFB1E818505B
:103C0000A0E8185044BF18C918C0BDE810405FEACA
:103C1000827C24BF51F8043B40F8043B08BF704746
:103C2000D20728BF31F8023B48BF11F8012B28BF4B
:103C300020F8023B48BF00F8012B704770477047DF
:103C4000704700002DE9F04115460E46040002D1F0
:103C50002C6804B90BA4204600F026F80444207810
:103C600070B127463146384600F00EF804442078FB
:103C700010B1002004F8010B38462C60BDE8F0813B
:103C80000027F9E70000000030B503461D781DB19C
:103C90000A4603E0AC4201D1181A30BD12F8014BBC
:103CA000002CF7D15B1CF1E730B503461D783DB120
:103CB0000A4612F8014B1CB1AC42FAD15B1CF5E785
:103CC000181A30BD754600F029F8AE460500694661
:103CD000534620F00700854618B020B5FFF7CAFE0E
:103CE000BDE820404FF000064FF000074FF00008FD
:103CF0004FF0000B21F00701AC46ACE8C009ACE87E
:103D0000C009ACE8C009ACE8C0098D46704704465C
:103D1000AFF300802046FCF730FA000000487047FF
:103D2000D001002001491820ABBEFEE726000200AA
:103D300070470000C9E8D6C3B2CECAFDA3BAC9E82D
:103D4000D6C322C4A3CABD222C224950222CB6CBF2
:103D5000BFDA2BBBD8B3B50D0AC8E7A3BAC9E8D6FA
:103D6000C322544350222C223132352E38392E3181
:103D7000382E3739222C31323334350D0A00000009
:103D80004040404040404040404040404040404033
:103D9000404040404040404040B6CCD0C5B2E2CA6E
:103DA000D44040404040404040404040404040407F
:103DB0004040404040404040404040404040404003
:103DC0004040404040404040404040400D0A0000DC
:103DD000C9E8D6C3D6D0D0C4BAC5A3BAC8E7A3BA77
:103DE000C9E8D6C32B38363133383030373536351D
:103DF0003030A3ACB1D8D0E8C9E8D6C3BAC3D6D066
:103E0000D0C4BAC5B2C5C4DCB7A2CBCDB6CCD0C580
:103E10000D0A0000B7A2CBCDB6CCD0C5A3BAC7EB74
:103E2000B0B4D2AAC7F3CAE4C8EBB5E7BBB02BC4A1
:103E3000DAC8DD28B7C7D6D0CEC429A3ACD2D4BB4C
:103E4000D8B3B5BDE1CAF83AC8E7313337787878E6
:103E5000782B6E6972656E2D656C656374726F6E1A
:103E60000D0A0000843E0008000000204000000011
:103E700028010008C43E000840000020F0070000B0
:103E800044010008000000000000000000000100E4
:103E90000000000000000000000000000102030418
:103EA00001020304060708090204060800A24A04E6
:103EB00000000000000000000102030406070809DA
:043EC00000000000FE
:04000005080000ED02
:00000001FF
