:1022F2007DA57C06ED1D70011C144C70F7EF1F705C
:06230200011E144E70EAFA
:0123080022B2
:1000460047505253C4A3BFE9B6CCD0C5B2E2CAD416
:10005600B3CCD0F20D0A0047505253C4A3BFE9D423
:10006600DAD7A2B2E1CDF8C2E70D0A004154004F3B
:100076004B00CEB4BCECB2E2B5BDC4A3BFE90D0AD9
:1000860000D5FDD4DAB3A2CAD4C1ACBDD30D0A00E3
:100096004154453000C7EBD1A1D4F13AD1A1D4F1F6
:1000A600CFE0D3A6B5C4D6D0CEC42BBBD8B3B5A3A8
:1000B600ACD4D9B7A2CBCD0D0A00B2A6BAC50900F9
:1000C600B6CCD0C50900475052530900B6A8CEBBDE
:1000D6000900D3EFD2F40D0A00B2A6BAC500B6CC19
:1000E600D0C5004750525300B6A8CEBB00D3EFD2BE
:1000F600F4000D0A4E6952656E2D456C65632053FA
:10010600494D3930304120B2E2CAD4B3CCD0F20DD9
:100116000A0041542B43474D4900D6C6D4ECC9CCFE
:100126003A000D0A0041542B43474D4D00C4A3BF6E
:10013600E9D0CDBAC53A0041542B4347534E00B2DD
:10014600FAC6B7D0F2C1D0BAC53A0041542B434ED5
:10015600554D002B434E554D00B1BEBBFABAC5C234
:10016600EB3A0041542B4350494E3F00C7EBBCECE1
:10017600B2E9CAD6BBFABFA8CAC7B7F1D3D0B2E5AF
:10018600C8EB0D0A0041542B434F50533F00220049
:10019600D4CBD3AAC9CC3A0041542B435351003A8D
:1001A600002C00D0C5BAC5D6CAC1BF3A0041542BEF
:1001B60043424300B5E7B3D8B5E7C1BF3A002500CF
:1001C60009006D760041542B43434C4B3F00CAB1A6
:1001D600BCE4C8D5C6DA3A0041542B444445543DE4
:1001E6003100C4A3BFE9D6A7B3D644544D46D2F4D2
:1001F600C6B5BDE2C2EBA3ACBFC9D2D4D6B1BDD39E
:10020600CAB6B1F0B6D4B7BDCDA8BBB0B9FDB3CCB4
:10021600D6D0B0B4CFC2B5C4B0B4BCFC00C4A3BF82
:10022600E9B2BBD6A7B3D644544D46D2F4C6B5BD43
:10023600E2C2EBA3ACB2BBBFC9D2D4CAB6B1F0B668
:10024600D4B7BDCDA8BBB0B9FDB3CCD6D0B0B4CF72
:10025600C2B5C4B0B4BCFC0041542B435454533D06
:100266003F00C4A3BFE9D6A7B3D6545453B1BEB515
:10027600D8D3EFD2F4A3ACBFC9D2D4D6B1BDD3BDC7
:10028600ABCEC4B1BEB2A5B7C5B3C9D3EFD2F400E5
:10029600C4A3BFE9B2BBD6A7B3D6545453B1BEB5B7
:1002A600D8D3EFD2F40041542B43495047534D4C19
:1002B6004F433D3F00C4A3BFE9D6A7B3D6BBF9D58C
:1002C600BEB6A8CEBBA3ACBFC9D2D4D6B1BDD3BB34
:1002D600F1C8A1B6A8CEBBD0C5CFA200C4A3BFE9C2
:1002E600B2BBD6A7B3D6BBF9D5BEB6A8CEBB004027
:1002F60040404040404040404040B2A6BAC5B2E20D
:10030600CAD440404040404040404040400D0A0072
:10031600B2A6B4F2B5E7BBB0A3BACAE4C8EBA1B0C3
:10032600D6C2B5E7787878782BBBD8B3B5A1B10D2E
:100336000A00BDD3CCFDB5E7BBB0A3BACAE4C8EB8F
:10034600A1B0BDD3CCFD2BBBD8B3B5A1B10D0A006E
:10035600B9D2B6CFB5E7BBB0A3BACAE4C8EBA1B071
:10036600B9D2B6CF2BBBD8B3B5A1B10D0A00445450
:100376004D46D3EFD2F4A3BACAE4C8EBA1B0B5A5F3
:10038600B8F6D7D6B7FB2BBBD8B3B5A1B10D0A00CB
:10039600CDCBB3F6B2E2CAD4A3BACAE4C8EBA1B0D5
:1003A600CDCBB3F62BBBD8B3B5A1B10D0A00CDCBDF
:1003B600B3F600BDD3CCFD00B9D2B6CF00D6C2B5D8
:1003C600E70052494E4700D3D0C0B4B5E70D0A0046
:1003D60041544100BDD3CCFDB3C9B9A60D0A0041B5
:1003E600544800B9D2B6CFB3C9B9A60D0A00D6C2D1
:1003F600B5E73A0041544400B2A6BDD0B3C9B9A688
:100406000D0A00C7EBD6D8D0C2BAF4BDD00D0A008B
:1004160041542B5654533D0044544D463A00B6D4ED
:10042600B7BDB0B4CFC2B0B4BCFCA3BA0041542B24
:10043600434E4D493D332C312C302C302C3000416D
:10044600542B434D47463D310041542B43504D53A9
:100456003D22534D222C22534D222C22534D220055
:100466004040404040404040404040404040404086
:10047600404040404040404040B6CCD0C5B2E2CAC1
:10048600D4404040404040404040404040404040D2
:100496004040404040404040404040404040404056
:1004A6004040404040404040404040400D0A00B778
:1004B600A2CBCDB6CCD0C5A3BAC7EBB0B4D2AAC72F
:1004C600F3CAE4C8EBB5E7BBB02BC4DAC8DD28B77E
:1004D600C7D6D0CEC429A3ACD2D4BBD8B3B5BDE160
:1004E600CAF83AC8E7313337787878782B6E69726C
:1004F600656E2D656C656374726F6E0D0A00B2E9E8
:10050600BFB4B6CCD0C5A3BAB2E9BFB4A3BA7878A3
:10051600A3AC7878B4FAB1EDB6CCD0C5B5C4B4E620
:10052600B4A2CEBBD6C30D0A002B00B2E9BFB400FD
:100536002B434D54493A00D3D0D0C2B6CCD0C50DCA
:100546000A00B6CCD0C5CEBBD6C33A200041542B48
:10055600434D47533D222B38360041542B435343DA
:10056600533D2247534D22003E00B7A2CBCDB6CC19
:10057600D0C5B3C9B9A60D0A00A3BA0041542B438E
:100586004D47523D00B6CCD0C5C4DAC8DDA3BA008B
:10059600404040404040404040404040404047503E
:1005A6005253B2E2CAD440404040404040404040EE
:1005B60040404040404040404040400D0A00C9E8AD
:1005C600D6C3B2CECAFDA3BAC9E8D6C322C4A3CA4B
:1005D600BD222C224950222CB6CBBFDA2BBBD8B376
:1005E600B50D0AC8E7A3BAC9E8D6C32254435022B8
:1005F6002C223132352E38392E31382E3739222CED
:1006060031323334350D0A00B7A2CBCDC4DAC8DD9A
:10061600A3BAB7A2CBCD2BC4DAC8DD2BBBD8B3B5F2
:100626000D0AC8E7A3BAB7A2CBCDC4E0C8CBB5E7DD
:10063600D7D30D0A00CDCBB3F6B2E2CAD4A3BACD56
:10064600CBB3F62BBBD8B3B50D0A00C9E8D6C300A9
:10065600B7A2CBCD00434F4E4E454354204F4B00DF
:10066600C1ACBDD3B3C9B9A60D0A00434C4F53451F
:100676004400C1ACBDD3CAA7B0DC0D0A002B49505B
:100686004400D3D0D0C2C4DAC8DD0D0A00544350AA
:10069600005544500041542B434950535441525441
:1006A6003D0041542B434950434C4F53453D310087
:1006B600434C4F5345204F4B0041542B4349505315
:1006C6004855540053485554204F4B0041542B4332
:1006D60047434C4153533D2242220041542B43474A
:1006E60044434F4E543D312C224950222C22434D37
:1006F6004E4554220041542B43474154543D31004A
:1007060041542B434950435347503D312C22434DCE
:100716004E4554220041542B434950484541443DDF
:100726003100D5FDD4DAB7A2C6F0C1ACBDD30D0AEF
:1007360000CAE4C8EBB4EDCEF3A3ACC7EBD6D8CA77
:10074600E40D0A00BFAACABCB7A2CBCD2E2E2E2E10
:100756002E2E2E2E2E2E2E0D0A0041542B4349509E
:1007660053454E440053454E44204F4B00B7A2CB51
:10077600CDB3C9B9A60D0A00B7A2CBCDCAA7B0DCC6
:100786000D0A00BBB9C3BBC1ACBDD30D0A00D0C4B2
:10079600CCF8B3C9B9A60D0A00D0C4CCF8CAA7B024
:1007A600DC0D0A0040404040404040404040404050
:1007B600404040404040404040BBF9D5BEB6A8CE80
:1007C600BBB2E2CAD4404040404040404040404076
:1007D60040404040404040404040404040400D0A7C
:1007E6000041542B53415042523D332C312C22436D
:1007F6006F6E74797065222C224750525322004145
:10080600542B53415042523D332C312C2241504EF1
:10081600222C22434D4E4554220041542B53415025
:1008260042523D312C3100B4F2BFAACAA7B0DCA3B4
:10083600ACC7EBC8B7C8CFC4A3BFE9CAC7B7F1D323
:10084600D0B8C3B9A6C4DC0D0A0041542B5341509D
:1008560042523D322C3100BBF1C8A1B1BEB5D849D8
:1008660050B4EDCEF30D0A0041542B534150425281
:100876003D302C3100CAE4C8EBB4EDCEF30D0A00CE
:1008860041542B43495047534D4C4F433D312C3136
:1008960000BEADB6C83A00CEB3B6C83A00C8D5C693
:1008A600DA3A00CAB1BCE43A004040404040404019
:1008B600404040404040404040404040404054540A
:1008C60053CEC4B1BED3EFD2F4B2E2CAD440404054
:1008D6004040404040404040404040404040404012
:1008E600404040400D0A00D6B1BDD3CAE4C8EBD69D
:1008F600D0CEC42BBBD8B3B5A3ACBCB4BFC9D2D47D
:10090600BDABD6D0CEC4CDA8B9FDB6FABBFAB2A55A
:10091600B7C5B3F6C0B40D0A00D7A2D2E2A3BAD7C0
:10092600EEB4F3D6A7B3D6313930B8F6D7D6BDDA9A
:100936000D0A00B4EDCEF3A3BAC7EBB2E9D1AFC44A
:10094600A3BFE9CAC7B7F1BEDFB1B8B8C3B9A6C479
:10095600DC0D0A00B5C8B4FDC9CFD2BBD6A1CAFD0D
:0D096600BEDDB2A5B7C5CDEAB1CF0D0A00C8
:10230900010B00010F0002090000010D00010E0080
:06231900010C00010800A8
:10228400122369120026122333122320D2AF7BFFBC
:102294007A00794612225D7BFF7A00795D12225D15
:0522A400121A1080FE7B
:03002300021DD7E4
:101DD700C0E0C083C082C0D075D000C004C005C0B9
:011DE70007F4
:101DE800C2AC309872C298AF99750D00900190E01E
:101DF800FCA3E0FDEC20E75F30E618EF640A60051D
:101E0800900190804EEC4480AF05900190F0A3EFD4
:101E1800F08044BF0D0C900190E04440F0A3E0F046
:101E28008035900190E0543FFCA3E02400F58274D3
:101E3800003CF583EFF0900191E004F0700690010A
:101E480090E004F0D3900191E094C7900190E09461
:0E1E5800004004E4F0A3F0309902C299D2AC2D
:0F1E6600D007D005D004D0D0D082D083D0E032C6
:030043000221C0D7
:1021C000C0E0C083C082C0D053AFFEE59A30E020AB
:1021D000539AFE750E0074C8250BF582E43400F5A1
:1021E00083E59BF0050BE50BD394C84003750B000A
:1021F000E59A30E103539AFD43AF01D0D0D082D0AD
:0422000083D0E03275
:03000B000220864A
:10208600C0E0C0F0C083C082C0D075D000C006C01A
:012096000742
:10209700C28C0508E508C39432400D750800B2A14B
:1020A700E50C94014002050C300008050AE50A70AA
:1020B700020509E50F75F032A4FFD3E50A9FE5098C
:1020C70095F04008C200750900750A00050E9001D9
:1020D70090E0547FFEA3E04E6010050DE50DC3941C
:0C20E700C84007900190E4F0A3F0D28CF8
:0F20F300D007D006D0D0D082D083D0F0D0E0324A
:0B23690053B1C343B23CC2B3C2A12277
:10232000538E7F5389F0E4F58A758C70C28DD28C00
:03233000D2A9220D
:10223300E50B7003750BC8E4FFFEC3EF950BEE943B
:1022430000501374C82FF58274003EF583E4F00F39
:09225300BF00010E80E4E4F50B6C
:01225C00225F
:101F01007563FF75640575656E7566027BFF7A07FB
:021F11007960F5
:061F13008B608A61896207
:101F19007568018B698A6A896B122233756702AB0E
:101F290060AA61A9621216D4FF60101223587401C5
:101F39002562F562E43561F56180E47F0D1223586D
:101F49007F0A122358E4F509F50A85660FD200A223
:101F590000E4335568602185636F85647085657118
:101F69007B017A0079C8121F84E94A4B70057568AC
:0A1F79000180DCE4F56880D7AF6852
:011F8300223B
:101A1000E4F521F522F5237563FF7564007565759E
:101A20007566057BFF7A007972121F13EF60227BC7
:101A3000FF7A00797812225D7F207E031222F27BEA
:101A4000FF7A00798712225D7F907E011222F28058
:101A5000C67563FF7564007565757566C87BFF7A2A
:101A6000007996121F13121B7D121079EF703975D1
:101A700023017BFF7A00799B12225D7BFF7A00793C
:101A8000C012225D7BFF7A0079C612225D7BFF7A4D
:101A90000079CC12225D7BFF7A0079D212225D7B25
:101AA000FF7A0079D812225DE52360FC900190E076
:101AB00030E7F5E4900190F0A3F0756FFF757000CA
:101AC0007571DF7B017A007900121F84EA494B604F
:101AD00005121336806E756FFF7570007571E47BAB
:101AE000017A007900121F84EA494B6005120D4CFF
:101AF0008052756FFF7570007571E97B017A00790E
:101B000000121F84EA494B60051209738036756F15
:101B1000FF7570007571EE7B017A007900121F84E9
:101B2000EA494B6005121815801A756FFF75700031
:101B30007571F37B017A007900121F84EA494B60CA
:101B400003121CC37BFF7A00799B12225D7BFF7A14
:101B50000079C012225D7BFF7A0079C612225D7B7C
:101B6000FF7A0079CC12225D7BFF7A0079D21222B3
:0D1B70005D7BFF7A0079D812225D021AA871
:101B7D007BFF7A0079F812225D1222337563FF75AF
:101B8D0064007565757566057BFF7A017918121FFE
:101B9D0013EF70347BFF7A01792012225D756FFF90
:101BAD007570017571287B017A0079CA121F848BBB
:101BBD00248A258926AF01C3EF94C8FD7B017A00E5
:101BCD0079CA1222CE1222337563FF7564007565D2
:101BDD00757566057BFF7A01792B121F13EF703433
:101BED007BFF7A01793312225D756FFF7570017578
:101BFD0071287B017A0079CA121F848B248A25896A
:101C0D0026AF01C3EF94C8FD7B017A0079CA122279
:101C1D00CE1222337563FF756400756575756605A3
:101C2D007BFF7A01793D121F13EF70347BFF7A0130
:101C3D00794512225D756FFF7570017571287B01F5
:101C4D007A0079CA121F848B248A258926AF01C395
:101C5D00EF94C8FD7B017A0079CA1222CE1222338D
:101C6D007563FF7564017565597566057BFF7A01AE
:101C7D007951121F13EF70347BFF7A01795F1222B5
:101C8D005D756FFF7570017571287B017A0079CADA
:101C9D00121F848B248A258926AF01C3EF94C8FDBA
:101CAD007B017A0079CA1222CE1222337F0D1223C4
:061CBD004C7F0A02234CDB
:10107900E4F52A1222337563FF7564007565757589
:1010890066037BFF7A017969121F13EF600C7BFFFE
:101099007A01797212225D432A011222337563FFA4
:1010A9007564007565757566037BFF7A01798B1226
:1010B9001F13EF7060756FFF7570017571947B0177
:1010C9007A0079C8121F848B248A258926EA494B1C
:1010D9006046E92401F9E43AFA756FFF7570017504
:1010E9007194121F848B278A2889297BFF7A0179B9
:1010F9009612225DAB24E5262401F9E43525FAC3CD
:10110900E529952614FD1222CE7F0D12234C7F0A64
:1011190012234C8003432A021222337563FF75643C
:10112900007565757566037BFF7A01799E121F1339
:10113900EF7061756FFF7570017571A57B017A009C
:1011490079C8121F848B248A258926EA494B60476E
:10115900E92401F9E43AFA756FFF7570017571A711
:10116900121F848B278A2889297BFF7A0179A91282
:10117900225DAB24E5262402F9E43525FAC3E529E5
:10118900952624FEFD1222CE7F0D12234C7F0A12D2
:10119900234C8003432A041222337563FF756400CC
:1011A9007565757566037BFF7A0179B3121F13EFB5
:1011B900600302123F756FFF7570017571A77B019E
:1011C9007A0079C8121F848B248A258926E924018B
:1011D900F9E43AFA756FFF7570017571A7121F84EA
:1011E9008B278A2889297BFF7A0179BA12225DAB7C
:1011F90024E5262401F9E43525FA7D021222CE7B65
:10120900FF7A0179C412225D7BFF7A0179C6122225
:101219005DAB27E5292401F9E43528FA7D0412227A
:10122900CE7BFF7A0179C812225D7F0D12234C7F94
:101239000A12234C8003432A081222337563FF756F
:1012490064007565757566037BFF7A0179CB121F9A
:1012590013EF703D756FFF7570017571947B017A9D
:101269000079C8121F848B248A2589267BFF7A017D
:1012790079D412225DAB24E5262401F9E43525FA57
:101289007D111222CE7F0D12234C7F0A12234C802E
:1012990003432A101222337563FF7564007565755F
:1012A9007566037BFF7A0179DE121F13EF7BFF70EE
:1012B900067A0179E880047A02792312225D7F0D8A
:1012C90012234C7F0A12234C7563FF756400756500
:1012D900757566037BFF7A02795E121F13EF7BFF38
:1012E90070067A02796880047A02799612225D7F03
:1012F9000D12234C7F0A12234C7563FF7564007528
:1013090065757566037BFF7A0279AC121F13EF7B53
:10131900FF70067A0279BB80047A0279E212225DB3
:0C1329007F0D12234C7F0A12234CAF2AC8
:011335002295
:10133600E4F556F557F558F559F55AF55B7BFF7AFE
:101346000279F512225D7BFF7A03791612225D7B04
:10135600FF7A03793812225D7BFF7A0379561222CF
:101366005D7BFF7A03797412225D7BFF7A0379969F
:1013760002144F900190E0FEA3E0FFEE20E7030287
:101386001411543FF5568F57E4900190F0A3F07571
:101396006FFF7570037571B47B017A007900121FB7
:1013A60084EA494B60037F0022756FFF75700375F1
:1013B60071B97B017A007900121F84EA494B6005F6
:1013C600755A018046756FFF7570037571BE7B0196
:1013D6007A007900121F84EA494B6005755A02802B
:1013E6002A756FFF7570037571C37B017A007900EA
:1013F600121F84EA494B6005755A03800EE55A7040
:1014060004F55A8006755A04755B01E55A14603F67
:1014160014606014700302149D14700302154A24AC
:10142600046003021379756FFF7570037571C87BCD
:10143600017A0079C8121F84EA494B7003021379B6
:101446001222337BFF7A0379CD12225D021379755E
:1014560063FF7564007565757566027BFF7A0379AF
:10146600D6121F13EF60030213797BFF7A0379DA32
:101476000215347563FF7564007565757566027BC4
:10148600FF7A0379E5121F13EF70097BFF7A037960
:10149600E912225D0215447BFF7A0379F412225D7C
:1014A6007B017A007904E55724FCFD1222CE7824CC
:1014B6007C007D007BFF7A0379FA1217F8755800D5
:1014C600755903E55724FFFFE55634FFFEC3E5597A
:1014D6009FE5589E501F74012559F58274003558B2
:1014E600F583E0FF74242559F8A6070559E55970D8
:1014F600D2055880CE0559E55970020558142424A2
:10150600F8763B0559E55970020558142424F8E489
:10151600F67563FF756400756575756608FB7A0078
:101526007924121F13EF7BFF700D7A0379FE1222C6
:101536005D755A040213797A04790912225DE4F57D
:101546005A021379E55B602EE4F55B78247C00FD96
:101556007BFF7A0479161217F8900000E0F52BE469
:10156600F52C7563FF756400756575756603FB7A02
:10157600007924121F13756FFF75700475711E7B39
:10158600017A0079C8121F84EA494B700302137965
:101596007F0A7E001222F2756FFF7570017571A5C4
:1015A6007B017A0079C8121F848B5C8A5D895E7B19
:1015B600FF7A04792412225DAB5CAA5DA95E9000D5
:1015C600011216EDFF12234C7F0D12234C7F0A12D7
:0815D600234C122233021379A9
:100D4C00E4F524F525F526F55F7563FF75640075EC
:100D5C0065757566037BFF7A047933121F1375630F
:100D6C00FF7564007565757566037BFF7A047945BC
:100D7C00121F137563FF7564007565757566037BCB
:100D8C00FF7A04794F121F137BFF7A0479661222C3
:100D9C005D7BFF7A0479B512225D7BFF7A057904BD
:100DAC0012225D7BFF7A03799612225D900190E00E
:100DBC00FEA3E0FFEE30E773543FF5248F25D3E517
:100DCC002594C6E524940040067524007525C6E4D8
:100DDC00900190F0A3F0756FFF7570037571B47B83
:100DEC00017A007900121F84EA494B60037F0022CC
:100DFC00756FFF75700575712F7B017A0079001284
:100E0C001F84EA494B6005752601801F756FFF75BD
:100E1C0070057571317B017A007900121F84EA49E3
:100E2C004B60057526028003E4F526E52614606107
:100E3C00147003020FA324026003020DB8756FFF38
:100E4C007570057571367B017A0079C8121F84EABA
:100E5C00494B7003020DB87BFF7A05793D12225D78
:100E6C007BFF7A05794812225D756FFF75700175ED
:100E7C0071A77B017A0079C8121F848B598A5A8911
:100E8C005BE92401F9E43AFA12225D122233020DD5
:100E9C00B874002525F58274003524F583E4F078C8
:100EAC00277C00FD7BFF7A0579531217F8755F0DCF
:100EBC00756FFF75700575712F7B017A00790012C3
:100ECC001F848B598A5A895BAE02AF01C3EF940021
:100EDC00FFEE9400FE74002FF58274003EF583E45F
:100EEC00F07426255FF9E4A801FCFD7B017A0079FA
:100EFC00001217F87B007A00792712000E8F5F74AE
:100F0C00272FF876227428255FF8E4F67563FF75B1
:100F1C0064007565757566027BFF7A047945121F4E
:100F2C00137563FF7564007565757566027BFF7AD2
:100F3C00057960121F137563FF75640575656E7511
:100F4C0066027B007A007927121F13AB59E55B24EC
:100F5C0001F9E4355AFA78277C007D001217F87BEA
:100F6C00007A00792712000E8F5F74272FF8761AFB
:100F7C007428255FF8E4F67563FF75640075657574
:100F8C0075660AFB7A007927121F137BFF7A0579A5
:100F9C007012225D02107374002525F582740035E1
:100FAC0024F583E4F0756FFF75700575717F7B0117
:100FBC007A007900121F848B598A5A895B78277CB6
:100FCC00007D007BFF7A0579821217F87B007A008E
:100FDC00792712000E8F5FAB59E55B2402F9E435DB
:100FEC005AFAC00174272FF9E4A801FCFDD00112B4
:100FFC0017F87B007A00792712000E8F5F7563FF5C
:10100C007564007565757566057B007A0079271225
:10101C001F13EF7052756FFF7570017571287B018E
:10102C007A0079CA121F848B598A5A895BE9240287
:10103C00F9E43AFA756FFF757001757128121F8407
:10104C008B5C8A5D895EAE01C3EE955BF55F7BFFC1
:10105C007A05798B12225DAB59E55B2402F9E435F4
:0D106C005AFAAD5F1222CEE4F526020DB84F
:10097300E4F524F525F526F5597BFF7A05799612DA
:10098300225D7BFF7A0579C412225D7BFF7A0679AB
:100993000E12225D7BFF7A06793B12225D90019055
:1009A300E0FEA3E0FFEE30E77A543FF5248F25D332
:1009B300E52594C6E524940040067524007525C6F4
:1009C300E4900190F0A3F0756FFF7570037571B437
:1009D3007B017A007900121F84EA494B6006752671
:1009E30004020AA0756FFF7570067571517B017A59
:1009F300007900121F84EA494B6006752601020A3A
:100A0300A0756FFF7570067571567B017A007900CA
:100A1300121F84EA494B6006752602020AA0E4F518
:100A230026807A756FFF75700675715B7B017A009E
:100A330079C8121F84EA494B6019E559B401147B44
:100A4300FF7A06796612225D750C017559027526C7
:100A5300038035E55964017032756FFF7570067553
:100A630071717B017A0079C8121F84EA494B7007C0
:100A7300E50CD3940A40147BFF7A06797812225D41
:100A8300E4F50CF559752601122233E559B4020D2C
:100A9300E50CD3940A4006750C01752603E526146C
:100AA3007003020B53147003020C84147003020CC2
:100AB300F4147003020D1F240460030209A0756F70
:100AC300FF7570067571837B017A0079C8121F84E4
:100AD300EA494B70030209A0E50ED39401500302C7
:100AE30009A07BFF7A06798812225D756FFF757006
:100AF300017571A77B017A0079C8121F848B5A8A0A
:100B03005B895C756FFF7570017571A57B017A0058
:100B130079C8121F848B5D8A5E895FAB5AE55C24BA
:100B230001F9E4355BFAC3E55F955C14FD12220419
:100B3300AD07AB5DE55F2401F9E4355EFA1222CE21
:100B43007F0D12234C7F0A12234C1222330209A079
:100B5300756FFF7570067571937B017A00790012CA
:100B63001F84EA494B701A756FFF7570067571978C
:100B73007B017A007900121F84EA494B7003020C4F
:100B83007878277C007D007BFF7A06799B1217F823
:100B9300E52524FCFFE52434FFFE78337C007D004B
:100BA3007B017A0079041216AE7563FF75640675CE
:100BB30065B67566027BFF7A0679A8121F13756303
:100BC300FF7564067565CA7566027BFF7A0679BF91
:100BD300121F137563FF7564007565757566027B77
:100BE300FF7A0679D2121F137563FF75640075656A
:100BF300757566027BFF7A0679E1121F137563FF31
:100C03007564007565757566027BFF7A0679FB125C
:100C13001F137563FF7564007565757566027BFF49
:100C23007A077906121F137563FF7564007565757E
:100C33007566027BFF7A07791B121F137563FF75B5
:100C430064007565757566027B007A007927121F4B
:100C530013EF7BFF70107A07792812225D750C0160
:100C6300755901020D197A07793712225DE4F50CE3
:100C7300F559020D197BFF7A07793712225D020DB0
:100C830019E5596402705F7BFF7A07794A12225D86
:100C9300121F01EF704374002525F582740035247B
:100CA300F583741AF074012525F58274003524F553
:100CB30083E4F07563FF75640775656B7566087B80
:100CC300017A007904121F13EF7BFF70137A0779FF
:100CD3007312225D750C0180167F1B1223587BFF54
:100CE3007A07797E80067BFF7A07798912225D80F5
:100CF30025121F01EF7011FF1223587F1A12235878
:100D03007BFF7A077994800B7F1B1223587BFF7A32
:100D130007799F12225DE4F5260209A07563FF752A
:100D230064067565B67566057BFF7A0679A8121F9A
:100D3300137563FF7564067565CA7566057BFF7A6F
:080D43000679BF121F137F01A6
:010D4B002285
:062204008B608A61896213
:10220A00E4FFFEEFC39D501EEE75F00AA4FEAB601C
:10221A000562E562AA617002056114F91216D424F6
:08222A00D02EFE0F80DDAF068F
:012232002289
:101815007BFF7A0779AA12225D7BFF7A06793B1254
:10182500225D7563FF7564007565757566027BFFDE
:101835007A0779E7121F137563FF7564007565757F
:101845007566027BFF7A087905121F137563FF75AC
:1018550064007565757566057BFF7A087920121F2A
:1018650013EF600C7BFF7A08792D12225D7F012230
:101875007563FF7564007565757566057BFF7A0888
:101885007950121F13EF600C7BFF7A08795D1222E5
:101895005D7F0222750C01900190E030E73FE490F6
:1018A5000190F0A3F0756FFF7570037571B47B013E
:1018B5007A007900121F84EA494B60187563FF7539
:1018C50064007565757566027BFF7A08796E121F6F
:1018D500137F00227BFF7A08797B12225D7563FFF7
:1018E50075640075657575660A7BFF7A08798612D9
:1018F5001F13EF6003021A00750C01756FFF7570F9
:10190500017571A77B017A0079C8121F848B248A1F
:10191500258926756FFF757001757128121F848BD7
:101925002A8A2B892CE525452645247003021A00B1
:101935007530FF7531017532A7AB24AA25A926128A
:1019450020068B278A2889297BFF7A087997122216
:101955005DAB27AA28A92912225D7F0912234C75A0
:1019650030FF7531017532A77B007A0079001220AE
:10197500068B278A2889297BFF7A08799D12225DA3
:10198500AB27AA28A92912225D7F0912234C75309D
:10199500FF7531017532A77B007A007900122006A8
:1019A5008B278A2889297BFF7A0879A312225DABC8
:1019B50027AA28A92912225D7F0912234C7530FF19
:1019C5007531017532A77B007A0079001220068BEC
:1019D500278A288929AB2AAA2BA92CE412171A7B56
:1019E500FF7A0879A912225DAB27AA28A929122214
:1019F5005D7F0D12234C7F0A12234CE50CD3940B0B
:0A1A0500500302189CE4F50C7F0169
:011A0F0022B4
:101CC300E4F524F5257BFF7A0879AF12225D7BFFCB
:101CD3007A06793B12225D7BFF7A0879ED12225D49
:101CE3007BFF7A09791F12225D7563FF75640075A6
:101CF30065757566027BFF7A02795E121F13EF60CA
:101D03000C7BFF7A09793912225D7F0122900190C1
:101D1300E0FEA3E0FFEE30E7F4543FF5248F25D334
:101D2300E52594C6E524940040067524007525C670
:101D3300E4900190F0A3F0E52564044524701A753E
:101D43006FFF7570037571B47B017A007900121F00
:101D530084EA494B60037F00227F411223587F545A
:101D63001223587F2B1223587F431223587F541278
:101D730023587F541223587F531223587F3D122335
:101D8300587F321223587F2C1223587F2212235854
:101D930074002525F58274003524F5837422F074CC
:101DA300012525F58274003524F583E4F07563FF7E
:101DB3007564007565757566027B017A007900129A
:101DC3001F13EF7003021D107BFF7A09795A122249
:041DD3005D021D1080
:10002600759850438E40538EFE53890F758BD0754D
:090036008DFFC2ABD28ED2AC22C8
:10233300759A50438E0475D7D075D6FF438E1043DC
:03234300AF0122C5
:0623460014F91216D4FF89
:0C234C00C2AC8F993099FDC299D2AC222E
:10225D008B608A618962AE02AF01EF4E6018AB6090
:10226D00AA61A9621216D4600D0562E562700205BD
:07227D006112234680E822F4
:1022CE008B608A618962AE02AF01EF4E6015ED60E0
:1022DE0012AB600562E562AA6170020561122346C7
:0422EE001D80EB2242
:1023580053AFFE8F9BE59A30E1FB539AFD75AF01B1
:012368002252
:1022A9008B108A118912AB10AA11A9121216D460C7
:1022B900130512E5127002051114F91216D4FF1252
:0522C900235880E22211
:03000000021E7568
:0C1E7500787FE4F6D8FD758177021EBC72
:1015DE00E709F608DFFA8046E709F208DFFA803EEF
:1015EE0088828C83E709F0A3DFFA8032E309F608DC
:1015FE00DFFA8078E309F208DFFA807088828C8344
:10160E00E309F0A3DFFA806489828A83E0A3F608F7
:10161E00DFFA805889828A83E0A3F208DFFA804CD1
:10162E0080D280FA80C680D4806980F280338010A8
:10163E0080A680EA809A80A880DA80E280CA803311
:10164E0089828A83ECFAE493A3C8C582C8CCC58389
:10165E00CCF0A3C8C582C8CCC583CCDFE9DEE78059
:10166E000D89828A83E493A3F608DFF9ECFAA9F0D8
:10167E00EDFB2289828A83ECFAE0A3C8C582C8CC2E
:10168E00C583CCF0A3C8C582C8CCC583CCDFEADE47
:10169E00E880DB89828A83E493A3F208DFF980CCA9
:1016AE0088F0EF60010E4E60C388F0ED2402B404A2
:1016BE000050B9F582EB2402B4040050AF23234549
:0616CE00822390162E732A
:1016D400BB010689828A83E0225002E722BBFE0214
:0916E400E32289828A83E4932247
:1016ED00BB010CE58229F582E5833AF583E02250B2
:1016FD0006E92582F8E622BBFE06E92582F8E222FC
:0D170D00E58229F582E5833AF583E4932215
:10171A00BB010689828A83F0225002F722BBFE01AE
:02172A00F322A8
:10172C00E709F60870FA8046E709F20870FA803E7D
:10173C0088828C83E709F0A370FA807EE309F608AF
:10174C0070FA8076E309F20870FA806E88828C83D6
:10175C00E309F0A370FA806289828A83E0A3F60819
:10176C0070FA805689828A83E0A3F20870FA804A64
:10177C0080D280FA80C680D4806580F2803180105F
:10178C0080A680EA809A80A880DA80E280CA8031C4
:10179C0089828A83ECFAE493A3C8C582C8CCC5833A
:1017AC00CCF0A3C8C582C8CCC583CC70E9800D89A8
:1017BC00828A83E493A3F60870F9ECFAA9F0EDFBA6
:1017CC002289828A83ECFAE0A3C8C582C8CCC5837F
:1017DC00CCF0A3C8C582C8CCC583CC70EA80DD89A7
:1017EC00828A83E493A3F20870F980CE88F0ED240A
:1017FC0002B4040050C4F582EB2402B4040050BAC5
:09180C00232345822390177C730D
:10000E00E4FFFE1216D4600C0FEF70010E09E970BA
:05001E00F20A80EF2250
:101F84008B6C8A6D896EAB6FAA70A9711216D460BE
:101F940063AB6CAA6DA96E1216D4605F856F7285EF
:101FA40070738571748B758A768977AB72AA73A9FD
:101FB400741216D4FF6023AB75AA76A9771216D4CF
:101FC4006F7017042574F574E43573F57374012583
:101FD40077F577E43576F57680D1AB72AA73A97478
:101FE4001216D47002800D7401256EF56EE4356D01
:101FF400F56D809DAB6CAA6DA96E227B007A007989
:022004000022B8
:102006008B2D8A2E892FE94A4B700985132D85144D
:102016002E85152FE52F452E452D7002802C8530F7
:1020260036853137853238AB2DAA2EA92F122102DB
:10203600EF252FF52FEE352EF52EAB2DFAA92F1203
:1020460016D4700AF513F514F515FBFAF922853046
:1020560036853137853238AB2DAA2EA92F1221634A
:102066008B138A148915EA494B600EE412171A0479
:102076002515F515E43514F514AB2DAA2EA92F2236
:101E8100022284E493A3F8E493A34003F68001F2D1
:101E910008DFF48029E493A3F85407240CC8C33362
:101EA100C4540F4420C8834004F456800146F6DF31
:101EB100E4800B0102040810204080902309E47E95
:101EC100019360BCA3FF543F30E509541FFEE49326
:101ED100A360010ECF54C025E060A840B8E493A3ED
:101EE100FAE493A3F8E493A3C8C582C8CAC583CA18
:101EF100F0A3C8C582C8CAC583CADFE9DEE780BED0
:01231F0000BD
:102102008B338A348935E4F539F53AE4FEFFAB3690
:10211200AA37A9388F828E831216EDFD6013AB3376
:10212200AA34A9351216D46D60070FBF00010E80C4
:10213200DDAB36AA37A9388F828E831216ED700274
:10214200801A053AE53A70020539AB330535E535B3
:1021520070020534F9AA341216D470AFAE39AF3A10
:01216200225A
:102163008B338A34893585363985373A85383BABA5
:1021730039AA3AA93B1216D4FF6019AB33AA34A982
:10218300351216D46F600D7401253BF53BE4353AE7
:10219300F53A80DBAB39AA3AA93B1216D46007ABF8
:1021A30033AA34A93522AB330535E535AA34700299
:0D21B300053414F91216D470ADFBFAF922B0
:00000001FF
